{
  "contractName": "PetitionManagement",
  "abi": [
    {
      "anonymous": false,
      "inputs": [
        {
          "indexed": true,
          "internalType": "uint256",
          "name": "petitionId",
          "type": "uint256"
        },
        {
          "indexed": false,
          "internalType": "uint256",
          "name": "finalSignatureCount",
          "type": "uint256"
        }
      ],
      "name": "PetitionClosed",
      "type": "event"
    },
    {
      "anonymous": false,
      "inputs": [
        {
          "indexed": true,
          "internalType": "uint256",
          "name": "petitionId",
          "type": "uint256"
        },
        {
          "indexed": true,
          "internalType": "address",
          "name": "creator",
          "type": "address"
        },
        {
          "indexed": false,
          "internalType": "string",
          "name": "title",
          "type": "string"
        }
      ],
      "name": "PetitionCreated",
      "type": "event"
    },
    {
      "anonymous": false,
      "inputs": [
        {
          "indexed": true,
          "internalType": "uint256",
          "name": "petitionId",
          "type": "uint256"
        },
        {
          "indexed": true,
          "internalType": "address",
          "name": "signer",
          "type": "address"
        },
        {
          "indexed": false,
          "internalType": "string",
          "name": "name",
          "type": "string"
        }
      ],
      "name": "PetitionSigned",
      "type": "event"
    },
    {
      "inputs": [
        {
          "internalType": "uint256",
          "name": "",
          "type": "uint256"
        },
        {
          "internalType": "address",
          "name": "",
          "type": "address"
        }
      ],
      "name": "hasSigned",
      "outputs": [
        {
          "internalType": "bool",
          "name": "",
          "type": "bool"
        }
      ],
      "stateMutability": "view",
      "type": "function",
      "constant": true
    },
    {
      "inputs": [
        {
          "internalType": "uint256",
          "name": "",
          "type": "uint256"
        }
      ],
      "name": "petitions",
      "outputs": [
        {
          "internalType": "uint256",
          "name": "id",
          "type": "uint256"
        },
        {
          "internalType": "address",
          "name": "creator",
          "type": "address"
        },
        {
          "internalType": "string",
          "name": "title",
          "type": "string"
        },
        {
          "internalType": "string",
          "name": "description",
          "type": "string"
        },
        {
          "internalType": "uint256",
          "name": "signatureCount",
          "type": "uint256"
        },
        {
          "internalType": "uint256",
          "name": "createdAt",
          "type": "uint256"
        },
        {
          "internalType": "bool",
          "name": "isActive",
          "type": "bool"
        }
      ],
      "stateMutability": "view",
      "type": "function",
      "constant": true
    },
    {
      "inputs": [
        {
          "internalType": "uint256",
          "name": "",
          "type": "uint256"
        }
      ],
      "name": "signatureCounters",
      "outputs": [
        {
          "internalType": "uint256",
          "name": "",
          "type": "uint256"
        }
      ],
      "stateMutability": "view",
      "type": "function",
      "constant": true
    },
    {
      "inputs": [
        {
          "internalType": "uint256",
          "name": "",
          "type": "uint256"
        },
        {
          "internalType": "uint256",
          "name": "",
          "type": "uint256"
        }
      ],
      "name": "signatures",
      "outputs": [
        {
          "internalType": "address",
          "name": "signer",
          "type": "address"
        },
        {
          "internalType": "string",
          "name": "name",
          "type": "string"
        },
        {
          "internalType": "uint256",
          "name": "timestamp",
          "type": "uint256"
        }
      ],
      "stateMutability": "view",
      "type": "function",
      "constant": true
    },
    {
      "inputs": [
        {
          "internalType": "string",
          "name": "_title",
          "type": "string"
        },
        {
          "internalType": "string",
          "name": "_description",
          "type": "string"
        }
      ],
      "name": "createPetition",
      "outputs": [
        {
          "internalType": "uint256",
          "name": "",
          "type": "uint256"
        }
      ],
      "stateMutability": "nonpayable",
      "type": "function"
    },
    {
      "inputs": [
        {
          "internalType": "uint256",
          "name": "_petitionId",
          "type": "uint256"
        },
        {
          "internalType": "string",
          "name": "_name",
          "type": "string"
        }
      ],
      "name": "signPetition",
      "outputs": [],
      "stateMutability": "nonpayable",
      "type": "function"
    },
    {
      "inputs": [
        {
          "internalType": "uint256",
          "name": "_petitionId",
          "type": "uint256"
        }
      ],
      "name": "getPetition",
      "outputs": [
        {
          "internalType": "uint256",
          "name": "id",
          "type": "uint256"
        },
        {
          "internalType": "address",
          "name": "creator",
          "type": "address"
        },
        {
          "internalType": "string",
          "name": "title",
          "type": "string"
        },
        {
          "internalType": "string",
          "name": "description",
          "type": "string"
        },
        {
          "internalType": "uint256",
          "name": "signatureCount",
          "type": "uint256"
        },
        {
          "internalType": "uint256",
          "name": "createdAt",
          "type": "uint256"
        },
        {
          "internalType": "bool",
          "name": "isActive",
          "type": "bool"
        }
      ],
      "stateMutability": "view",
      "type": "function",
      "constant": true
    },
    {
      "inputs": [
        {
          "internalType": "uint256",
          "name": "_petitionId",
          "type": "uint256"
        },
        {
          "internalType": "uint256",
          "name": "_signatureId",
          "type": "uint256"
        }
      ],
      "name": "getSignature",
      "outputs": [
        {
          "internalType": "address",
          "name": "signer",
          "type": "address"
        },
        {
          "internalType": "string",
          "name": "name",
          "type": "string"
        },
        {
          "internalType": "uint256",
          "name": "timestamp",
          "type": "uint256"
        }
      ],
      "stateMutability": "view",
      "type": "function",
      "constant": true
    },
    {
      "inputs": [
        {
          "internalType": "uint256",
          "name": "_petitionId",
          "type": "uint256"
        }
      ],
      "name": "getSignatureCount",
      "outputs": [
        {
          "internalType": "uint256",
          "name": "",
          "type": "uint256"
        }
      ],
      "stateMutability": "view",
      "type": "function",
      "constant": true
    }
  ],
  "bytecode": "0x608060405234801561001057600080fd5b50610f15806100206000396000f3fe608060405234801561001057600080fd5b50600436106100935760003560e01c806341a51d131161006657806341a51d131461011d5780636a12874f14610130578063709df8d9146101525780637743007d14610190578063de5ede65146101a357600080fd5b80630bcb03d4146100985780630c90ce42146100ad5780632fe0fee8146100dc5780633ad50ded1461010a575b600080fd5b6100ab6100a6366004610c3c565b6101b6565b005b6100c06100bb366004610c83565b6103f5565b6040516100d39796959493929190610ce9565b60405180910390f35b6100fc6100ea366004610c83565b60046020526000908152604090205481565b6040519081526020016100d3565b6100c0610118366004610c83565b6105b9565b6100fc61012b366004610d47565b610714565b61014361013e366004610da1565b610885565b6040516100d393929190610dc3565b610180610160366004610df7565b600260209081526000928352604080842090915290825290205460ff1681565b60405190151581526020016100d3565b6100fc61019e366004610c83565b6109ef565b6101436101b1366004610da1565b610a40565b6000828152600160208190526040909120015482906001600160a01b03166101f95760405162461bcd60e51b81526004016101f090610e33565b60405180910390fd5b600083815260016020526040902060060154839060ff166102555760405162461bcd60e51b81526020600482015260166024820152755065746974696f6e206973206e6f742061637469766560501b60448201526064016101f0565b6000848152600260209081526040808320338452909152902054849060ff16156102cf5760405162461bcd60e51b815260206004820152602560248201527f596f75206861766520616c7265616479207369676e656420746869732070657460448201526434ba34b7b760d91b60648201526084016101f0565b600085815260046020908152604080832054815160608101835233815280840189815242828501528a865260038552838620838752855292909420845181546001600160a01b0319166001600160a01b039091161781559151805191949361033f92600185019290910190610b00565b50604091820151600291820155600088815260209182528281203382528252828120805460ff1916600190811790915589825290915290812060040180549161038783610e6a565b909155505060008681526004602052604081208054916103a683610e6a565b9190505550336001600160a01b0316867fc956ac3349e10227ba896b7ba4c9fe6d498ad036e0d3522254c55110ee428127876040516103e59190610e91565b60405180910390a3505050505050565b6000818152600160208190526040822001548190606090819083908190819088906001600160a01b031661043b5760405162461bcd60e51b81526004016101f090610e33565b60008981526001602081905260409091208054918101546004820154600583015460068401546002850180549596956001600160a01b0390951694909360038801939092909160ff90911690859061049290610eab565b80601f01602080910402602001604051908101604052809291908181526020018280546104be90610eab565b801561050b5780601f106104e05761010080835404028352916020019161050b565b820191906000526020600020905b8154815290600101906020018083116104ee57829003601f168201915b5050505050945083805461051e90610eab565b80601f016020809104026020016040519081016040528092919081815260200182805461054a90610eab565b80156105975780601f1061056c57610100808354040283529160200191610597565b820191906000526020600020905b81548152906001019060200180831161057a57829003601f168201915b5050505050935098509850985098509850985098505050919395979092949650565b60016020819052600091825260409091208054918101546002820180546001600160a01b0390921692916105ec90610eab565b80601f016020809104026020016040519081016040528092919081815260200182805461061890610eab565b80156106655780601f1061063a57610100808354040283529160200191610665565b820191906000526020600020905b81548152906001019060200180831161064857829003601f168201915b50505050509080600301805461067a90610eab565b80601f01602080910402602001604051908101604052809291908181526020018280546106a690610eab565b80156106f35780601f106106c8576101008083540402835291602001916106f3565b820191906000526020600020905b8154815290600101906020018083116106d657829003601f168201915b50505050600483015460058401546006909401549293909290915060ff1687565b60008083511161075e5760405162461bcd60e51b81526020600482015260156024820152745469746c652063616e6e6f7420626520656d70747960581b60448201526064016101f0565b600080549081908061076f83610e6a565b90915550506040805160e081018252828152336020808301918252828401888152606084018890526000608085018190524260a0860152600160c0860181905287825280845295902084518155925194830180546001600160a01b0319166001600160a01b039096169590951790945592518051929391926107f79260028501920190610b00565b5060608201518051610813916003840191602090910190610b00565b506080820151600482015560a0820151600582015560c0909101516006909101805460ff1916911515919091179055604051339082907ff15d4a4b5e906c44e0fce125b9db48592cad5b671eca5f5e15fe74184a8c029f90610876908890610e91565b60405180910390a39392505050565b600082815260016020819052604082200154606090829085906001600160a01b03166108c35760405162461bcd60e51b81526004016101f090610e33565b60008681526004602052604090205485106109205760405162461bcd60e51b815260206004820152601860248201527f5369676e617475726520646f6573206e6f74206578697374000000000000000060448201526064016101f0565b60008681526003602090815260408083208884529091529020805460028201546001830180546001600160a01b0390931692909190829061096090610eab565b80601f016020809104026020016040519081016040528092919081815260200182805461098c90610eab565b80156109d95780601f106109ae576101008083540402835291602001916109d9565b820191906000526020600020905b8154815290600101906020018083116109bc57829003601f168201915b5050505050915094509450945050509250925092565b60008181526001602081905260408220015482906001600160a01b0316610a285760405162461bcd60e51b81526004016101f090610e33565b60008381526004602052604090205491505b50919050565b6003602090815260009283526040808420909152908252902080546001820180546001600160a01b039092169291610a7790610eab565b80601f0160208091040260200160405190810160405280929190818152602001828054610aa390610eab565b8015610af05780601f10610ac557610100808354040283529160200191610af0565b820191906000526020600020905b815481529060010190602001808311610ad357829003601f168201915b5050505050908060020154905083565b828054610b0c90610eab565b90600052602060002090601f016020900481019282610b2e5760008555610b74565b82601f10610b4757805160ff1916838001178555610b74565b82800160010185558215610b74579182015b82811115610b74578251825591602001919060010190610b59565b50610b80929150610b84565b5090565b5b80821115610b805760008155600101610b85565b634e487b7160e01b600052604160045260246000fd5b600082601f830112610bc057600080fd5b813567ffffffffffffffff80821115610bdb57610bdb610b99565b604051601f8301601f19908116603f01168101908282118183101715610c0357610c03610b99565b81604052838152866020858801011115610c1c57600080fd5b836020870160208301376000602085830101528094505050505092915050565b60008060408385031215610c4f57600080fd5b82359150602083013567ffffffffffffffff811115610c6d57600080fd5b610c7985828601610baf565b9150509250929050565b600060208284031215610c9557600080fd5b5035919050565b6000815180845260005b81811015610cc257602081850181015186830182015201610ca6565b81811115610cd4576000602083870101525b50601f01601f19169290920160200192915050565b8781526001600160a01b038716602082015260e060408201819052600090610d1390830188610c9c565b8281036060840152610d258188610c9c565b6080840196909652505060a0810192909252151560c090910152949350505050565b60008060408385031215610d5a57600080fd5b823567ffffffffffffffff80821115610d7257600080fd5b610d7e86838701610baf565b93506020850135915080821115610d9457600080fd5b50610c7985828601610baf565b60008060408385031215610db457600080fd5b50508035926020909101359150565b6001600160a01b0384168152606060208201819052600090610de790830185610c9c565b9050826040830152949350505050565b60008060408385031215610e0a57600080fd5b8235915060208301356001600160a01b0381168114610e2857600080fd5b809150509250929050565b60208082526017908201527f5065746974696f6e20646f6573206e6f74206578697374000000000000000000604082015260600190565b600060018201610e8a57634e487b7160e01b600052601160045260246000fd5b5060010190565b602081526000610ea46020830184610c9c565b9392505050565b600181811c90821680610ebf57607f821691505b602082108103610a3a57634e487b7160e01b600052602260045260246000fdfea2646970667358221220f4c4538cb0ad8d03f967efa118b281cc93a4ac4ec92bf81061fff9c9b40c5b9264736f6c634300080d0033",
  "immutableReferences": {},
  "source": "// SPDX-License-Identifier: MIT\r\npragma solidity >=0.4.22 <0.9.0;\r\n\r\ncontract PetitionManagement{\r\n    struct Petition {\r\n        uint256 id;\r\n        address creator;\r\n        string title;\r\n        string description;\r\n        uint256 signatureCount;\r\n        uint256 createdAt;\r\n        bool isActive;\r\n    }\r\n\r\n    struct Signature {\r\n        address signer;\r\n        string name;\r\n        uint256 timestamp;\r\n    }\r\n\r\n    uint256 private petitionCounter;\r\n    mapping(uint256 => Petition) public petitions;\r\n    mapping(uint256 => mapping(address => bool)) public hasSigned;\r\n    mapping(uint256 => mapping(uint256 => Signature)) public signatures;\r\n    mapping(uint256 => uint256) public signatureCounters;\r\n\r\n    event PetitionCreated(uint256 indexed petitionId, address indexed creator, string title);\r\n    event PetitionSigned(uint256 indexed petitionId, address indexed signer, string name);\r\n    event PetitionClosed(uint256 indexed petitionId, uint256 finalSignatureCount);\r\n\r\n    modifier petitionExists(uint256 _petitionId) {\r\n        require(petitions[_petitionId].creator != address(0), \"Petition does not exist\");\r\n        _;\r\n    }\r\n\r\n    modifier petitionActive(uint256 _petitionId) {\r\n        require(petitions[_petitionId].isActive, \"Petition is not active\");\r\n        _;\r\n    }\r\n    \r\n    modifier hasNotSigned(uint256 _petitionId) {\r\n        require(!hasSigned[_petitionId][msg.sender], \"You have already signed this petition\");\r\n        _;\r\n    }\r\n\r\n    function createPetition(\r\n        string memory _title,\r\n        string memory _description\r\n    ) external returns (uint256) {\r\n        require(bytes(_title).length > 0, \"Title cannot be empty\");\r\n        \r\n        uint256 petitionId = petitionCounter;\r\n        petitionCounter++;\r\n        \r\n        petitions[petitionId] = Petition({\r\n            id: petitionId,\r\n            creator: msg.sender,\r\n            title: _title,\r\n            description: _description,\r\n            signatureCount: 0,\r\n            createdAt: block.timestamp,\r\n            isActive: true\r\n        });\r\n        \r\n        emit PetitionCreated(petitionId, msg.sender, _title);\r\n        return petitionId;\r\n    }\r\n\r\n    function signPetition(\r\n        uint256 _petitionId,\r\n        string memory _name\r\n    ) external \r\n        petitionExists(_petitionId)\r\n        petitionActive(_petitionId)\r\n        hasNotSigned(_petitionId)\r\n    {\r\n        uint256 signatureId = signatureCounters[_petitionId];\r\n        \r\n        signatures[_petitionId][signatureId] = Signature({\r\n            signer: msg.sender,\r\n            name: _name,\r\n            timestamp: block.timestamp\r\n        });\r\n        \r\n        hasSigned[_petitionId][msg.sender] = true;\r\n        petitions[_petitionId].signatureCount++;\r\n        signatureCounters[_petitionId]++;\r\n        \r\n        emit PetitionSigned(_petitionId, msg.sender, _name);\r\n\r\n    }\r\n\r\n    // Get petition details\r\n    function getPetition(uint256 _petitionId) external view \r\n        petitionExists(_petitionId)\r\n        returns (\r\n            uint256 id,\r\n            address creator,\r\n            string memory title,\r\n            string memory description,\r\n            uint256 signatureCount,\r\n            uint256 createdAt,\r\n            bool isActive\r\n        ) \r\n    {\r\n        Petition storage petition = petitions[_petitionId];\r\n        return (\r\n            petition.id,\r\n            petition.creator,\r\n            petition.title,\r\n            petition.description,\r\n            petition.signatureCount,\r\n            petition.createdAt,\r\n            petition.isActive\r\n        );\r\n    }\r\n\r\n    // Get signature details for a petition\r\n    function getSignature(uint256 _petitionId, uint256 _signatureId) external view\r\n        petitionExists(_petitionId)\r\n        returns (\r\n            address signer,\r\n            string memory name,\r\n            uint256 timestamp\r\n        )\r\n    {\r\n        require(_signatureId < signatureCounters[_petitionId], \"Signature does not exist\");\r\n        \r\n        Signature storage signature = signatures[_petitionId][_signatureId];\r\n        return (\r\n            signature.signer,\r\n            signature.name,\r\n            signature.timestamp\r\n        );\r\n    }\r\n\r\n    // Get all signatures for a petition (note: this may be expensive for large petitions)\r\n    function getSignatureCount(uint256 _petitionId) external view\r\n        petitionExists(_petitionId)\r\n        returns (uint256)\r\n    {\r\n        return signatureCounters[_petitionId];\r\n    }\r\n}",
  "sourcePath": "D:\\now\\backend-blockchain\\contracts\\PetitionManagement.sol",
  "compiler": {
    "name": "solc",
    "version": "0.8.13+commit.abaa5c0e.Emscripten.clang"
  },
  "schemaVersion": "3.4.16",
  "updatedAt": "2025-04-07T17:28:19.929Z",
  "networkType": "ethereum",
  "devdoc": {
    "kind": "dev",
    "methods": {},
    "version": 1
  },
  "userdoc": {
    "kind": "user",
    "methods": {},
    "version": 1
  }
}