{
  "contractName": "PetitionManagement",
  "abi": [
    {
      "anonymous": false,
      "inputs": [
        {
          "indexed": true,
          "internalType": "uint256",
          "name": "petitionId",
          "type": "uint256"
        },
        {
          "indexed": false,
          "internalType": "uint256",
          "name": "finalSignatureCount",
          "type": "uint256"
        }
      ],
      "name": "PetitionClosed",
      "type": "event"
    },
    {
      "anonymous": false,
      "inputs": [
        {
          "indexed": true,
          "internalType": "uint256",
          "name": "petitionId",
          "type": "uint256"
        },
        {
          "indexed": true,
          "internalType": "address",
          "name": "creator",
          "type": "address"
        },
        {
          "indexed": false,
          "internalType": "string",
          "name": "title",
          "type": "string"
        }
      ],
      "name": "PetitionCreated",
      "type": "event"
    },
    {
      "anonymous": false,
      "inputs": [
        {
          "indexed": true,
          "internalType": "uint256",
          "name": "petitionId",
          "type": "uint256"
        },
        {
          "indexed": true,
          "internalType": "address",
          "name": "signer",
          "type": "address"
        },
        {
          "indexed": false,
          "internalType": "string",
          "name": "name",
          "type": "string"
        }
      ],
      "name": "PetitionSigned",
      "type": "event"
    },
    {
      "inputs": [
        {
          "internalType": "uint256",
          "name": "",
          "type": "uint256"
        },
        {
          "internalType": "bytes32",
          "name": "",
          "type": "bytes32"
        }
      ],
      "name": "hasSigned",
      "outputs": [
        {
          "internalType": "bool",
          "name": "",
          "type": "bool"
        }
      ],
      "stateMutability": "view",
      "type": "function",
      "constant": true
    },
    {
      "inputs": [
        {
          "internalType": "uint256",
          "name": "",
          "type": "uint256"
        }
      ],
      "name": "petitions",
      "outputs": [
        {
          "internalType": "uint256",
          "name": "id",
          "type": "uint256"
        },
        {
          "internalType": "address",
          "name": "creator",
          "type": "address"
        },
        {
          "internalType": "string",
          "name": "title",
          "type": "string"
        },
        {
          "internalType": "string",
          "name": "description",
          "type": "string"
        },
        {
          "internalType": "uint256",
          "name": "signatureCount",
          "type": "uint256"
        },
        {
          "internalType": "uint256",
          "name": "createdAt",
          "type": "uint256"
        },
        {
          "internalType": "bool",
          "name": "isActive",
          "type": "bool"
        }
      ],
      "stateMutability": "view",
      "type": "function",
      "constant": true
    },
    {
      "inputs": [
        {
          "internalType": "uint256",
          "name": "",
          "type": "uint256"
        }
      ],
      "name": "signatureCounters",
      "outputs": [
        {
          "internalType": "uint256",
          "name": "",
          "type": "uint256"
        }
      ],
      "stateMutability": "view",
      "type": "function",
      "constant": true
    },
    {
      "inputs": [
        {
          "internalType": "uint256",
          "name": "",
          "type": "uint256"
        },
        {
          "internalType": "uint256",
          "name": "",
          "type": "uint256"
        }
      ],
      "name": "signatures",
      "outputs": [
        {
          "internalType": "address",
          "name": "signer",
          "type": "address"
        },
        {
          "internalType": "string",
          "name": "name",
          "type": "string"
        },
        {
          "internalType": "uint256",
          "name": "timestamp",
          "type": "uint256"
        }
      ],
      "stateMutability": "view",
      "type": "function",
      "constant": true
    },
    {
      "inputs": [
        {
          "internalType": "string",
          "name": "_title",
          "type": "string"
        },
        {
          "internalType": "string",
          "name": "_description",
          "type": "string"
        }
      ],
      "name": "createPetition",
      "outputs": [
        {
          "internalType": "uint256",
          "name": "",
          "type": "uint256"
        }
      ],
      "stateMutability": "nonpayable",
      "type": "function"
    },
    {
      "inputs": [
        {
          "internalType": "uint256",
          "name": "_petitionId",
          "type": "uint256"
        },
        {
          "internalType": "string",
          "name": "_name",
          "type": "string"
        },
        {
          "internalType": "string",
          "name": "_email",
          "type": "string"
        }
      ],
      "name": "signPetition",
      "outputs": [],
      "stateMutability": "nonpayable",
      "type": "function"
    },
    {
      "inputs": [
        {
          "internalType": "uint256",
          "name": "_petitionId",
          "type": "uint256"
        }
      ],
      "name": "getPetition",
      "outputs": [
        {
          "internalType": "uint256",
          "name": "id",
          "type": "uint256"
        },
        {
          "internalType": "address",
          "name": "creator",
          "type": "address"
        },
        {
          "internalType": "string",
          "name": "title",
          "type": "string"
        },
        {
          "internalType": "string",
          "name": "description",
          "type": "string"
        },
        {
          "internalType": "uint256",
          "name": "signatureCount",
          "type": "uint256"
        },
        {
          "internalType": "uint256",
          "name": "createdAt",
          "type": "uint256"
        },
        {
          "internalType": "bool",
          "name": "isActive",
          "type": "bool"
        }
      ],
      "stateMutability": "view",
      "type": "function",
      "constant": true
    },
    {
      "inputs": [
        {
          "internalType": "uint256",
          "name": "_petitionId",
          "type": "uint256"
        },
        {
          "internalType": "uint256",
          "name": "_signatureId",
          "type": "uint256"
        }
      ],
      "name": "getSignature",
      "outputs": [
        {
          "internalType": "address",
          "name": "signer",
          "type": "address"
        },
        {
          "internalType": "string",
          "name": "name",
          "type": "string"
        },
        {
          "internalType": "uint256",
          "name": "timestamp",
          "type": "uint256"
        }
      ],
      "stateMutability": "view",
      "type": "function",
      "constant": true
    },
    {
      "inputs": [
        {
          "internalType": "uint256",
          "name": "_petitionId",
          "type": "uint256"
        }
      ],
      "name": "getSignatureCount",
      "outputs": [
        {
          "internalType": "uint256",
          "name": "",
          "type": "uint256"
        }
      ],
      "stateMutability": "view",
      "type": "function",
      "constant": true
    }
  ],
  "bytecode": "0x608060405234801561001057600080fd5b50610f5c806100206000396000f3fe608060405234801561001057600080fd5b50600436106100935760003560e01c806341a51d131161006657806341a51d131461011d5780636a12874f146101305780636a2c92df146101525780637743007d14610190578063de5ede65146101a357600080fd5b80630c90ce42146100985780632fe0fee8146100c75780633ad50ded146100f55780633cd1a97b14610108575b600080fd5b6100ab6100a6366004610bc1565b6101b6565b6040516100be9796959493929190610c36565b60405180910390f35b6100e76100d5366004610bc1565b60046020526000908152604090205481565b6040519081526020016100be565b6100ab610103366004610bc1565b610383565b61011b610116366004610d37565b6104de565b005b6100e761012b366004610da4565b61073c565b61014361013e366004610e08565b6108ad565b6040516100be93929190610e2a565b610180610160366004610e08565b600260209081526000928352604080842090915290825290205460ff1681565b60405190151581526020016100be565b6100e761019e366004610bc1565b610a17565b6101436101b1366004610e08565b610a68565b6000818152600160208190526040822001548190606090819083908190819088906001600160a01b03166102055760405162461bcd60e51b81526004016101fc90610e5e565b60405180910390fd5b60008981526001602081905260409091208054918101546004820154600583015460068401546002850180549596956001600160a01b0390951694909360038801939092909160ff90911690859061025c90610e95565b80601f016020809104026020016040519081016040528092919081815260200182805461028890610e95565b80156102d55780601f106102aa576101008083540402835291602001916102d5565b820191906000526020600020905b8154815290600101906020018083116102b857829003601f168201915b505050505094508380546102e890610e95565b80601f016020809104026020016040519081016040528092919081815260200182805461031490610e95565b80156103615780601f1061033657610100808354040283529160200191610361565b820191906000526020600020905b81548152906001019060200180831161034457829003601f168201915b5050505050935098509850985098509850985098505050919395979092949650565b60016020819052600091825260409091208054918101546002820180546001600160a01b0390921692916103b690610e95565b80601f01602080910402602001604051908101604052809291908181526020018280546103e290610e95565b801561042f5780601f106104045761010080835404028352916020019161042f565b820191906000526020600020905b81548152906001019060200180831161041257829003601f168201915b50505050509080600301805461044490610e95565b80601f016020809104026020016040519081016040528092919081815260200182805461047090610e95565b80156104bd5780601f10610492576101008083540402835291602001916104bd565b820191906000526020600020905b8154815290600101906020018083116104a057829003601f168201915b50505050600483015460058401546006909401549293909290915060ff1687565b6000838152600160208190526040909120015483906001600160a01b03166105185760405162461bcd60e51b81526004016101fc90610e5e565b600084815260016020526040902060060154849060ff166105745760405162461bcd60e51b81526020600482015260166024820152755065746974696f6e206973206e6f742061637469766560501b60448201526064016101fc565b6000836040516020016105879190610ec9565b60408051601f19818403018152918152815160209283012060008981526002845282812082825290935291205490915060ff16156106155760405162461bcd60e51b815260206004820152602560248201527f596f75206861766520616c7265616479207369676e656420746869732070657460448201526434ba34b7b760d91b60648201526084016101fc565b60008681526004602090815260408083205481516060810183523381528084018a815242828501528b865260038552838620838752855292909420845181546001600160a01b0319166001600160a01b039091161781559151805191949361068592600185019290910190610b28565b50604091820151600291820155600089815260209182528281208582528252828120805460ff191660019081179091558a82529091529081206004018054916106cd83610ee5565b909155505060008781526004602052604081208054916106ec83610ee5565b9190505550336001600160a01b0316877fc956ac3349e10227ba896b7ba4c9fe6d498ad036e0d3522254c55110ee4281278860405161072b9190610f0c565b60405180910390a350505050505050565b6000808351116107865760405162461bcd60e51b81526020600482015260156024820152745469746c652063616e6e6f7420626520656d70747960581b60448201526064016101fc565b600080549081908061079783610ee5565b90915550506040805160e081018252828152336020808301918252828401888152606084018890526000608085018190524260a0860152600160c0860181905287825280845295902084518155925194830180546001600160a01b0319166001600160a01b0390961695909517909455925180519293919261081f9260028501920190610b28565b506060820151805161083b916003840191602090910190610b28565b506080820151600482015560a0820151600582015560c0909101516006909101805460ff1916911515919091179055604051339082907ff15d4a4b5e906c44e0fce125b9db48592cad5b671eca5f5e15fe74184a8c029f9061089e908890610f0c565b60405180910390a39392505050565b600082815260016020819052604082200154606090829085906001600160a01b03166108eb5760405162461bcd60e51b81526004016101fc90610e5e565b60008681526004602052604090205485106109485760405162461bcd60e51b815260206004820152601860248201527f5369676e617475726520646f6573206e6f74206578697374000000000000000060448201526064016101fc565b60008681526003602090815260408083208884529091529020805460028201546001830180546001600160a01b0390931692909190829061098890610e95565b80601f01602080910402602001604051908101604052809291908181526020018280546109b490610e95565b8015610a015780601f106109d657610100808354040283529160200191610a01565b820191906000526020600020905b8154815290600101906020018083116109e457829003601f168201915b5050505050915094509450945050509250925092565b60008181526001602081905260408220015482906001600160a01b0316610a505760405162461bcd60e51b81526004016101fc90610e5e565b60008381526004602052604090205491505b50919050565b6003602090815260009283526040808420909152908252902080546001820180546001600160a01b039092169291610a9f90610e95565b80601f0160208091040260200160405190810160405280929190818152602001828054610acb90610e95565b8015610b185780601f10610aed57610100808354040283529160200191610b18565b820191906000526020600020905b815481529060010190602001808311610afb57829003601f168201915b5050505050908060020154905083565b828054610b3490610e95565b90600052602060002090601f016020900481019282610b565760008555610b9c565b82601f10610b6f57805160ff1916838001178555610b9c565b82800160010185558215610b9c579182015b82811115610b9c578251825591602001919060010190610b81565b50610ba8929150610bac565b5090565b5b80821115610ba85760008155600101610bad565b600060208284031215610bd357600080fd5b5035919050565b60005b83811015610bf5578181015183820152602001610bdd565b83811115610c04576000848401525b50505050565b60008151808452610c22816020860160208601610bda565b601f01601f19169290920160200192915050565b8781526001600160a01b038716602082015260e060408201819052600090610c6090830188610c0a565b8281036060840152610c728188610c0a565b6080840196909652505060a0810192909252151560c090910152949350505050565b634e487b7160e01b600052604160045260246000fd5b600082601f830112610cbb57600080fd5b813567ffffffffffffffff80821115610cd657610cd6610c94565b604051601f8301601f19908116603f01168101908282118183101715610cfe57610cfe610c94565b81604052838152866020858801011115610d1757600080fd5b836020870160208301376000602085830101528094505050505092915050565b600080600060608486031215610d4c57600080fd5b83359250602084013567ffffffffffffffff80821115610d6b57600080fd5b610d7787838801610caa565b93506040860135915080821115610d8d57600080fd5b50610d9a86828701610caa565b9150509250925092565b60008060408385031215610db757600080fd5b823567ffffffffffffffff80821115610dcf57600080fd5b610ddb86838701610caa565b93506020850135915080821115610df157600080fd5b50610dfe85828601610caa565b9150509250929050565b60008060408385031215610e1b57600080fd5b50508035926020909101359150565b6001600160a01b0384168152606060208201819052600090610e4e90830185610c0a565b9050826040830152949350505050565b60208082526017908201527f5065746974696f6e20646f6573206e6f74206578697374000000000000000000604082015260600190565b600181811c90821680610ea957607f821691505b602082108103610a6257634e487b7160e01b600052602260045260246000fd5b60008251610edb818460208701610bda565b9190910192915050565b600060018201610f0557634e487b7160e01b600052601160045260246000fd5b5060010190565b602081526000610f1f6020830184610c0a565b939250505056fea2646970667358221220e31ca66481eae458d54be024deb51045a0fe0b06ebee12d694b1e87cc399905a64736f6c634300080d0033",
  "immutableReferences": {},
  "source": "// SPDX-License-Identifier: MIT\r\npragma solidity >=0.4.22 <0.9.0;\r\n\r\ncontract PetitionManagement{\r\n    struct Petition {\r\n        uint256 id;\r\n        address creator;\r\n        string title;\r\n        string description;\r\n        uint256 signatureCount;\r\n        uint256 createdAt;\r\n        bool isActive;\r\n    }\r\n\r\n    struct Signature {\r\n        address signer;\r\n        string name;\r\n        uint256 timestamp;\r\n    }\r\n\r\n    uint256 private petitionCounter;\r\n    mapping(uint256 => Petition) public petitions;\r\n    mapping(uint256 => mapping(bytes32 => bool)) public hasSigned;\r\n    mapping(uint256 => mapping(uint256 => Signature)) public signatures;\r\n    mapping(uint256 => uint256) public signatureCounters;\r\n\r\n    event PetitionCreated(uint256 indexed petitionId, address indexed creator, string title);\r\n    event PetitionSigned(uint256 indexed petitionId, address indexed signer, string name);\r\n    event PetitionClosed(uint256 indexed petitionId, uint256 finalSignatureCount);\r\n\r\n    modifier petitionExists(uint256 _petitionId) {\r\n        require(petitions[_petitionId].creator != address(0), \"Petition does not exist\");\r\n        _;\r\n    }\r\n\r\n    modifier petitionActive(uint256 _petitionId) {\r\n        require(petitions[_petitionId].isActive, \"Petition is not active\");\r\n        _;\r\n    }\r\n    \r\n    modifier hasNotSigned(uint256 _petitionId,bytes32 emailHash) {\r\n        require(!hasSigned[_petitionId][emailHash], \"You have already signed this petition\");\r\n        _;\r\n    }\r\n\r\n    function createPetition(\r\n        string memory _title,\r\n        string memory _description\r\n    ) external returns (uint256) {\r\n        require(bytes(_title).length > 0, \"Title cannot be empty\");\r\n        \r\n        uint256 petitionId = petitionCounter;\r\n        petitionCounter++;\r\n        \r\n        petitions[petitionId] = Petition({\r\n            id: petitionId,\r\n            creator: msg.sender,\r\n            title: _title,\r\n            description: _description,\r\n            signatureCount: 0,\r\n            createdAt: block.timestamp,\r\n            isActive: true\r\n        });\r\n        \r\n        emit PetitionCreated(petitionId, msg.sender, _title);\r\n        return petitionId;\r\n    }\r\n\r\n    function signPetition(\r\n        uint256 _petitionId,\r\n        string memory _name,\r\n        string memory _email\r\n    ) external \r\n        petitionExists(_petitionId)\r\n        petitionActive(_petitionId)\r\n    {\r\n        bytes32 emailHash = keccak256(abi.encodePacked(_email));\r\n        require(!hasSigned[_petitionId][emailHash], \"You have already signed this petition\");\r\n        uint256 signatureId = signatureCounters[_petitionId];\r\n\r\n        signatures[_petitionId][signatureId] = Signature({\r\n            signer: msg.sender,\r\n            name: _name,\r\n            timestamp: block.timestamp\r\n        });\r\n        \r\n        hasSigned[_petitionId][emailHash] = true;\r\n        petitions[_petitionId].signatureCount++;\r\n        signatureCounters[_petitionId]++;\r\n        \r\n        emit PetitionSigned(_petitionId, msg.sender, _name);\r\n\r\n    }\r\n\r\n    // Get petition details\r\n    function getPetition(uint256 _petitionId) external view \r\n        petitionExists(_petitionId)\r\n        returns (\r\n            uint256 id,\r\n            address creator,\r\n            string memory title,\r\n            string memory description,\r\n            uint256 signatureCount,\r\n            uint256 createdAt,\r\n            bool isActive\r\n        ) \r\n    {\r\n        Petition storage petition = petitions[_petitionId];\r\n        return (\r\n            petition.id,\r\n            petition.creator,\r\n            petition.title,\r\n            petition.description,\r\n            petition.signatureCount,\r\n            petition.createdAt,\r\n            petition.isActive\r\n        );\r\n    }\r\n\r\n    // Get signature details for a petition\r\n    function getSignature(uint256 _petitionId, uint256 _signatureId) external view\r\n        petitionExists(_petitionId)\r\n        returns (\r\n            address signer,\r\n            string memory name,\r\n            uint256 timestamp\r\n        )\r\n    {\r\n        require(_signatureId < signatureCounters[_petitionId], \"Signature does not exist\");\r\n        \r\n        Signature storage signature = signatures[_petitionId][_signatureId];\r\n        return (\r\n            signature.signer,\r\n            signature.name,\r\n            signature.timestamp\r\n        );\r\n    }\r\n\r\n    // Get all signatures for a petition (note: this may be expensive for large petitions)\r\n    function getSignatureCount(uint256 _petitionId) external view\r\n        petitionExists(_petitionId)\r\n        returns (uint256)\r\n    {\r\n        return signatureCounters[_petitionId];\r\n    }\r\n}",
  "sourcePath": "D:\\now\\backend-blockchain\\contracts\\PetitionManagement.sol",
  "compiler": {
    "name": "solc",
    "version": "0.8.13+commit.abaa5c0e.Emscripten.clang"
  },
  "schemaVersion": "3.4.16",
  "updatedAt": "2025-04-08T09:36:21.563Z",
  "networkType": "ethereum",
  "devdoc": {
    "kind": "dev",
    "methods": {},
    "version": 1
  },
  "userdoc": {
    "kind": "user",
    "methods": {},
    "version": 1
  }
}